:040000002EEF07F0E8
:08000800046ED8CF05F0E0CF33
:1000100006F00001E9CF0CF0EACF07F0E1CF08F0DD
:10002000E2CF09F0D9CF0AF0DACF0BF0F3CF12F01C
:10003000F4CF13F0FACF14F000C00EF001C00FF0AF
:1000400002C010F003C011F0F2AA2AEF00F0F2B4DF
:10005000F5EF00F09DAA30EF00F09EBAE3EF00F05C
:100060000EC000F00FC001F010C002F011C003F08C
:100070000CC0E9FF07C0EAFF078E08C0E1FF09C016
:10008000E2FF0AC0D9FF0BC0DAFF12C0F3FF13C0B2
:10009000F4FF14C0FAFF045006C0E0FF05C0D8FF0B
:1000A00010004572726F72200A0A0D0D0000536530
:1000B000206861207465726D696E61646F20656C83
:1000C000207469656D706F200A0A0D0D000045727D
:1000D000726F72200A0A0D0D0000036A28501C0F6F
:1000E000E96E000E0320EA6EEF500A080AE0036A88
:1000F00028501C0FE96E000E0320EA6EEF500D0829
:1001000002E1010E296E010E2E5C285C02E3010E55
:10011000296E036A28501C0FE96E000E0320EA6E58
:10012000EF502F080AE2036A28501C0FE96E000EF8
:100130000320EA6EEF50390828E2036A28501C0FAA
:10014000E96E000E0320EA6EEF502D081EE0036AF0
:1001500028501C0FE96E000E0320EA6EEF502E08A7
:1001600014E0036A28501C0FE96E000E0320EA6EAB
:10017000EF500A080AE0036A28501C0FE96E000ECF
:100180000320EA6EEF500D080FE128520AE0036ADF
:1001900028501C0FE96E000E0320EA6EEF502D0868
:1001A00003E02D50010802E2010E276E036A285079
:1001B0001C0FE96E000E0320EA6EEF502E0801E1DD
:1001C0002D2AF1EF00F0036A28501C0FE96E000E93
:1001D0000320EA6E9EAAFED7AECFEFFF2C6A2B6AF1
:1001E0007CD7282A9E9A30EF00F02C50020809E2B2
:1001F000FF0A03E12B50930804E2010E296E276EDB
:100200002A6E2B2AD8B42C2AF29430EF00F05072C8
:10021000616374696361204E6F2E2034200A0D00E3
:1002200043616C63756C61646F72612041726974C3
:100230006D6574696361200A0A0D0D00496E67726D
:1002400065736120656C207072696D6572206F70D6
:100250006572616E646F200A0D00496E6772657386
:100260006120656C20736567756E646F206F7065C3
:1002700072616E646F200A0D000053656C656363E4
:10028000696F6E6520756E61206F7065726163695C
:100290006F6E3A200A0D20312953756D612020328E
:1002A000295265737461202033294D756C7469700F
:1002B0006C69636163696F6E2020342944697669D3
:1002C00073696F6E200A0D004572726F72200A0A00
:1002D0000D0D0000456C20726573756C7461646F60
:1002E000206465206C61206F7065726163696F6E58
:1002F0002065733A2025660A0A0D0D003F6A3F6AA1
:100300002E503F5C0AE2036A3F501C0FE96E000E5C
:100310000320EA6EEF6A3F2AF3D712000900F55274
:100320000DE0F6CF44F0F7CF45F0F5509EA8FED78C
:10033000AD6E44C0F6FF45C0F7FFF0D71200286A43
:10034000276A296A2A6A2D6A2952FEE02C6A2B6ADA
:1003500012005750D8B471D0006E5B50D8B46DD035
:10036000002604E3810E002668E204D07F0E005EC2
:1003700064E363E058C05FF05C505F1A588E5C8E97
:100380005A505E02F4CF61F059505D02F4CF03F091
:10039000F3CF60F05E02F3506126F4506022000E4D
:1003A00003225A505D02F3506126F4506022000E81
:1003B000026A0322022258505E02F3506026F45073
:1003C0000322000E022258505D02F3500326F4501F
:1003D0000222000E016A01225A505C02F35060268C
:1003E000F4500322000E0222012259505C02F35005
:1003F0000326F4500222000E012258505C02F350F2
:100400000226F4500122002A01BE05D060360336D0
:10041000023601360006000E60AE0AD0032A022220
:100420000122015005E1025003E1035001E1002ADD
:100430005FBE018E5FAE019E04D0006A016A026A4F
:10044000036A12008E0E006E5CC001F05BC002F009
:10045000036A015209E102C001F0026A080E005E5F
:10046000015202E1006A08D0D89001BE04D00236E1
:1004700001360006F9D7019E12005B50D8B4A5D012
:10048000676E5F50D8B4A1D0675E05E37F0E672624
:10049000D8B09BD006D0810E675ED8A096D0D8B4D5
:1004A00094D067C000F0016A026A036A666A5CC0A1
:1004B00065F0658E5DC064F05EC063F0190E676E16
:1004C0006250635E0DE2010E645E0AE2655E08E260
:1004D000665E06E2662A652A642A6250632628D090
:1004E0006150645E12E2010E655E0FE2665E0DE22F
:1004F000662A652A615064266250632619E3642ADD
:1005000017E1652A15E1662A13D060508009655EFF
:100510000EE2010E665E0BE2662A605080096526D7
:1005200061506426E9E3652AE7E1662AE5D703809E
:10053000672E01D00BD0D8906336643665366636A8
:10054000D8900336023601366836BAD768A006D08E
:10055000D890013202320332683202D0000635E010
:1005600068BE1ED0D89063366436653666366250F3
:10057000635E07E2010E645E04E2655E02E2665EAF
:100580001AE36150645E05E2010E655E02E2665E9A
:1005900012E360508009655E03E2010E665E0BE3C4
:1005A000032A09E1022A07E1012A05E1002A0DE0F8
:1005B0000132023203325CC067F06050671A67AEE6
:1005C00002D0018E06D0019E04D0006A016A026A40
:1005D000036A1200800ED8B2601A656A666A5CC04F
:1005E00064F06050641A5B50D8B4DCD0636E006E67
:1005F0005F50D8B4E0D0635ED8B481D03DE360C032
:1006000069F0698E61C068F062C067F0666AD89070
:100610006932683267326632632EF8D764AE03D02F
:100620006580DDD0659063906588EA6A5E0EE96E4C
:10063000E9D0659864BE0AD063A013D069326832ED
:1006400067326632002AD8B4C5D00BD069BE0CD050
:10065000D89066366736683669360006D8B4BAD0A0
:10066000F5D7658C6BD0659C5CC064F05CAE02D045
:10067000698EA9D0699EA7D05FC063F05FC000F00B
:100680005B50635E5CC069F0698E5DC068F05EC0FF
:1006900067F0666AD8906932683267326632632ED4
:1006A000F8D764AE03D065829AD065926390658A6C
:1006B000EA6A620EE96EA6D0659A64BE0AD063A0AB
:1006C00013D06932683267326632002AD8B482D0D9
:1006D0000BD069BE0CD0D89066366736683669365E
:1006E0000006D8B477D0F5D7658E28D0659E60C057
:1006F00064F060AE02D0698E66D0699E64D060C03E
:1007000069F0698E61C068F062C067F064AE04D0C1
:10071000699E658464D06594666A6390EA6A5E0E39
:10072000E96E70D064BE1CD05CC064F063A006D0DB
:100730006932683267326632002A4CE066AE0BD00E
:10074000672A09E1682A07E1692A05E16932683206
:100750006732002A3FE065BC86D765BEC7D71CD08C
:10076000800E691A69AE04D03AD060C064F00AD035
:100770005CC064F0695206E1685204E1675202E12C
:10078000006A21D069BE08D0D890663667366836D0
:100790006936002EF7D71ED064AE02D0698E13D012
:1007A000699E11D05FC000F060C069F061C068F060
:1007B00062C067F008D05BC000F05CC069F05DC04B
:1007C00068F05EC067F069C001F068C002F067C001
:1007D00003F034D0006A016A026A036A2FD0666AA5
:1007E000671E681E691E661E662A05E1672A03E108
:1007F000682A01E1692A65B015D765B256D765B494
:100800008AD7B3D7EF50672605E3682A03E1692A40
:10081000D8B46380ED52EF50682603E3692AD8B458
:100820006380ED52EF50EFBE01D0800A6926D8B048
:10083000638065B8FED665BA3FD774D712004F6A99
:100840004E6A4D6A7F0E4C6E536A526A516A506A04
:10085000548054925494566A4850491005E1006AF5
:10086000016A026A036A03D15650562A036A482471
:10087000E96E49500320EA6EEFCF55F05552D8B4D7
:10088000BBD054A00FD0555020080CE054905550C8
:100890002B0803E15492A5D005D055502D0802E154
:1008A00054829FD054B007D055502E0804E154B460
:1008B00002D0548496D054B091D055502F08D8B05F
:1008C0008DD055503908D8A089D0300E555E54A42B
:1008D0004FD04FC05AF04EC059F04DC058F04CC0E8
:1008E00057F05E6A5D6A200E5C6E820E5B6E31DDD3
:1008F00003C04FF002C04EF001C04DF000C04CF0FC
:100900005C6A55C05BF09EDD03C05AF002C059F02E
:1009100001C058F000C057F003C05EF002C05DF0A7
:1009200001C05CF000C05BF04FC062F04EC061F0EF
:100930004DC060F04CC05FF0A0DDD89253C05EF0B7
:1009400052C05DF051C05CF050C05BF003C062F07B
:1009500002C061F001C060F000C05FF03BDE03C088
:1009600053F002C052F001C051F000C050F035D039
:100970005A6A596A200E586E820E576E53C05EF046
:1009800052C05DF051C05CF050C05BF0E2DC03C0CF
:100990005AF002C059F001C058F000C057F05C6A2C
:1009A00055C05BF04FDDD8925AC05EF059C05DF083
:1009B00058C05CF057C05BF003C062F002C061F049
:1009C00001C060F000C05FF005DE03C053F002C05C
:1009D00052F001C051F000C050F003D054B001D02B
:1009E0000BD05650562A036A4824E96E495003201A
:1009F000EA6EEFCF55F042D754A217D05A6A596A1F
:100A0000800E586E7F0E576E53C05EF052C05DF080
:100A100051C05CF050C05BF09CDC03C053F002C0DE
:100A200052F001C051F000C050F04A504B1017E096
:100A300056520CE056064AC0E9FF4BC0EAFF56503A
:100A40004824EF6E000E4920EC6E09D04AC0E9FF41
:100A50004BC0EAFF49C0ECFFED5248C0EFFF50C069
:100A600000F051C001F052C002F053C003F03FEF5C
:100A700005F0496A1C0E486E4B6A4A6AE0D603C00C
:100A800047F002C046F001C045F000C044F044C049
:100A900000F045C001F046C002F047C003F012006C
:100AA00050C057F05450571A57AE05D0D894D8902C
:100AB00050BED8802FD050C057F053C058F04F5080
:100AC000585E06E057AE26D0D850010AD86E22D024
:100AD00054C058F05050585E06E057AE1BD0D85066
:100AE000010AD86E17D055C058F05150585E06E034
:100AF00057AE10D0D850010AD86E0CD056C058F05E
:100B00005250585E06E057AE05D0D850010AD86E54
:100B100001D0D89012003F6A010E285C036A1C0FB6
:100B2000E96E000E0320EA6EEF500A080BE0010E9A
:100B3000285C036A1C0FE96E000E0320EA6EEF507A
:100B40000D0809E1010E285C036A1C0FE96E000E16
:100B50000320EA6EEF6A272C01D002D01C5210E16C
:100B6000A20EF66E000EF76E8EEC01F02A2C06D067
:100B7000AE0EF66E000EF76E8EEC01F0010E3F6EBB
:100B800078DF03C043F002C042F001C041F000C072
:100B900040F0526A400E516E1C0E506E8C0E4F6E1D
:100BA00043C056F042C055F041C054F040C053F02D
:100BB00077DF11E243C052F042C051F041C050F023
:100BC00040C04FF0566A400E556E9C0E546E8C0E0F
:100BD000536E66DF08E3CE0EF66E000EF76E8EECF7
:100BE00001F0010E3F6E3FC001F012004C50B608FC
:100BF0004C6E036A4DC050F04D8ED8904D324E323F
:100C00004F3203320232013200324C2EF6D750AE50
:100C10000BD0001E011E021E031E002AD8B4012A9A
:100C2000D8B4022AD8B4032A85EF06F0D8B203D08C
:100C3000EA6A540EE96E006A016A026A036A546A3B
:100C4000556A566A576A53505210511050102CE092
:100C5000200E586ED8904C364D364E364F365436A0
:100C60005536563657365350575C08E15250565C4D
:100C700005E15150555C02E15050545C0FE3505077
:100C8000545E5150D8A0513C555E5250D8A0523CB1
:100C9000565E5350D8A0533C575ED880003601367C
:100CA00002360336582ED6D754C0EFFF55C0ECFF9E
:100CB00056C0ECFF57C0ECFF1200E950446E4350A1
:100CC000466E1AE042C05AF041C059F040C058F098
:100CD0003FC057F05E6A5D6A200E5C6E820E5B6EEE
:100CE000A9EC01F003C042F002C041F001C040F0A5
:100CF00000C03FF0462EE6D742C04FF041C04EF054
:100D000040C04DF03FC04CF071D703C042F002C06C
:100D100041F001C040F000C03FF042AE0DD04406AB
:100D2000448A3F1E401E411E421E3F2AD8B4402A1C
:100D3000D8B4412AD8B4422A3B0E4B6E9A0E4A6E62
:100D4000CA0E496E486A0A0E466E4350D8B4442A09
:100D5000D882EA6A3F0EE96E42C04FF041C04EF0C1
:100D600040C04DF03FC04CF04BC053F04AC052F071
:100D700049C051F048C050F059DF015000520FE116
:100D80004328465C0CE044500CE00F0B465C01E04D
:100D90003BE244BE39D044BC04D0200E30D0200EFB
:100DA000441644AA0DD0449A4350D8A44406005097
:100DB000446E2D0E9EA8FED7AD6E4450006E446A60
:100DC0004350465C0BE10050446E2E0E9EA8FED7A9
:100DD000AD6E4450006E200E4416000E300E44AA34
:100DE0000ED0449A4350D8A444060050446E2D0EB1
:100DF0009EA8FED7AD6E4450006E446A300E0026A9
:100E000000509EA8FED7AD6ED8924BC04FF04AC09E
:100E10004EF049C04DF048C04CF0536A526A516AD6
:100E20000A0E506E03DF03C04BF002C04AF001C04F
:100E300049F000C048F0462E8BD712000900F6CFCB
:100E400040F0F7CF41F0F5509EA8FED7AD6E40C000
:100E5000F6FF41C0F7FF3F2EF1D71200F86AD09E8F
:100E6000078EB886A00EAF6E010EB06EA60EAC6EE9
:100E7000900EAB6E276A286A296A2A6A2C6A2B6A46
:100E80002D6A0B0E2E6EC150C00B0F09C16E070EDE
:100E9000B46E166A176A600ED36E400E9B6ED35006
:100EA000C00EF2129D8AC150C00B0F09C16E010E17
:100EB000D76ED66AC70ED56E326A316A306A2F6A2B
:100EC000366A356A346A336A3A6A396A386A376A1E
:100ED0003E6A3D6A3C6A3B6A7EEC01F00E0EF66E9D
:100EE000020EF76E8EEC01F0200EF66E020EF76E1B
:100EF0008EEC01F03C0EF66E020EF76E8EEC01F0F9
:100F0000F28A9FEC01F0F29A06DE012C01D0D4D7D0
:100F1000B0DD03C032F002C031F001C030F000C0DB
:100F20002FF0890EE96E32C042F031C041F030C07E
:100F300040F02FC03FF0040E436EBFDE0A0E9EA8A5
:100F4000FED7AD6E0D0E9EA8FED7AD6E7EEC01F005
:100F50005A0EF66E020EF76E8EEC01F0F28A9FECDE
:100F600001F0F29AD8DD012C01D0A6D782DD03C0B2
:100F700036F002C035F001C034F000C033F0890E05
:100F8000E96E36C042F035C041F034C040F033C0A5
:100F90003FF0040E436E91DE0A0E9EA8FED7AD6EA2
:100FA0000D0E9EA8FED7AD6E7EEC01F07A0EF66EA9
:100FB000020EF76E8EEC01F0F28A9FEC01F0F29ACD
:100FC000AADD012C01D078D754DD03C03EF002C069
:100FD0003DF001C03CF000C03BF07EEC01F03EC0B3
:100FE00042F03DC041F03CC040F03BC03FF032C059
:100FF00046F031C045F030C044F02FC043F036C059
:101000004AF035C049F034C048F033C047F042C020
:1010100052F041C051F040C050F03FC04FF0566A0E
:10102000556A546A7F0E536E3BDD1CE1D89246C070
:101030005EF045C05DF044C05CF043C05BF04AC068
:1010400062F049C061F048C060F047C05FF0EAEC70
:1010500002F003C03AF002C039F001C038F000C01D
:1010600037F07FD042C052F041C051F040C050F044
:101070003FC04FF0566A556A546A800E536E10DDB9
:101080001CE1D88246C05EF045C05DF044C05CF013
:1010900043C05BF04AC062F049C061F048C060F0F4
:1010A00047C05FF0EAEC02F003C03AF002C039F04A
:1010B00001C038F000C037F054D042C052F041C0F7
:1010C00051F040C050F03FC04FF0566A556A400E94
:1010D000546E800E536EE4DC1BE146C05AF045C0EE
:1010E00059F044C058F043C057F04AC05EF049C0C0
:1010F0005DF048C05CF047C05BF0A9EC01F003C0B4
:101100003AF002C039F001C038F000C037F029D001
:1011100042C052F041C051F040C050F03FC04FF0CB
:10112000566A556A546A810E536EBADC1AE146C09B
:101130005EF045C05DF044C05CF043C05BF04AC067
:1011400062F049C061F048C060F047C05FF03DEC1C
:1011500002F003C03AF002C039F001C038F000C01C
:1011600037F036C052F035C051F034C050F033C0C3
:101170004FF0566A556A546A536A92DC0FE13EC0DA
:1011800052F03DC051F03CC050F03BC04FF0566AA9
:10119000556A546A810E536E83DC1EE0526A516AAE
:1011A000506A4F6A3EC056F03DC055F03CC054F006
:1011B0003BC053F075DC10E33EC052F03DC051F02F
:1011C0003CC050F03BC04FF0566A556A200E546E3A
:1011D000810E536E65DC07E2C80EF66E020EF76EE6
:1011E0008EEC01F069D6D40EF66E020EF76E210E6B
:1011F0003F6E24DE890EE96E3AC042F039C041F0FC
:1012000038C040F037C03FF0020E436E56DDF70E97
:10121000F66E020EF76E040E3F6E10DE5DD6030012
:020000040030CA
:0E0000000002181E000581000FC00FE00F4027
:00000001FF
;PIC18F4620
;CRC=3823  CREATED="03-may.-17 15:48"
