:04000000BDEF06F05A
:08000800046ED8CF05F0E0CF33
:1000100006F00001E9CF0CF0EACF07F0E1CF08F0DD
:10002000E2CF09F0D9CF0AF0DACF0BF0F3CF12F01C
:10003000F4CF13F0FACF14F000C00EF001C00FF0AF
:1000400002C010F003C011F0F2AA2AEF00F0F2B4DF
:10005000D7EF00F09DAA30EF00F09EBA51EF00F00C
:100060000EC000F00FC001F010C002F011C003F08C
:100070000CC0E9FF07C0EAFF078E08C0E1FF09C016
:10008000E2FF0AC0D9FF0BC0DAFF12C0F3FF13C0B2
:10009000F4FF14C0FAFF045006C0E0FF05C0D8FF0B
:1000A0001000036A28501C0FE96E000E0320EA6E50
:1000B0009EAAFED7AECFEFFFF29A2C6A2B6A036A94
:1000C00028501C0FE96E000E0320EA6EEF500A085C
:1000D0000AE0036A28501C0FE96E000E0320EA6E46
:1000E000EF500D0802E1010E296E2850090802E2C6
:1000F000010E296E036A28501C0FE96E000E0320C2
:10010000EA6EEF502F080AE2036A28501C0FE96ECE
:10011000000E0320EA6EEF50390828E2036A2850E7
:100120001C0FE96E000E0320EA6EEF502D081EE052
:10013000036A28501C0FE96E000E0320EA6EEF5090
:100140002E0814E0036A28501C0FE96E000E0320ED
:10015000EA6EEF500A080AE0036A28501C0FE96EA5
:10016000000E0320EA6EEF500D080FE128520AE05E
:10017000036A28501C0FE96E000E0320EA6EEF5050
:100180002D0803E02D50010802E2010E276E036ADC
:1001900028501C0FE96E000E0320EA6EEF502E0867
:1001A00001E12D2A282AF28A9E9A30EF00F02C5085
:1001B000020809E2FF0A03E12B50930804E2010E52
:1001C000296E276E2A6E2B2AD8B42C2AF29430EF8F
:1001D00000F05072616374696361204E6F2E2034A9
:1001E000200A0D0043616C63756C61646F7261205D
:1001F000417269746D6574696361200A0A0D0D00AE
:10020000496E677265736120656C207072696D65F7
:1002100072206F706572616E646F200A0D00457206
:10022000726F72200A0A0D0D00005365206861206C
:100230007465726D696E61646F20656C20746965A8
:100240006D706F200A0A0D0D0000496E67726573AC
:100250006120656C20736567756E646F206F7065D3
:1002600072616E646F200A0D00004572726F722019
:100270000A0D00005365206861207465726D696E17
:1002800061646F20656C207469656D706F200A0A67
:100290000D0D000053656C656363696F6E652075B5
:1002A0006E61206F7065726163696F6E3A200A0D2E
:1002B00020312953756D6120203229526573746194
:1002C000202033294D756C7469706C6963616369B2
:1002D0006F6E202034294469766973696F6E200A35
:1002E0000D004572726F72200A0D00005365206880
:1002F00061207465726D696E61646F20656C207435
:1003000069656D706F200A0A0D0D0000456C207242
:100310006573756C7461646F206465206C61206F17
:100320007065726163696F6E2065733A2025660A95
:100330000A0D0D003B6A3B6A3B500A080AE3036A58
:100340003B501C0FE96E000E0320EA6EEF6A3B2A59
:10035000F3D712000900F5520DE0F6CF3BF0F7CFCE
:100360003CF0F5509EA8FED7AD6E3BC0F6FF3CC0FA
:10037000F7FFF0D712004A50D8B471D0006E4E503B
:10038000D8B46DD0002604E3810E002668E204D0C4
:100390007F0E005E64E363E04BC052F04F50521A90
:1003A0004B8E4F8E4D505102F4CF54F04C505002B2
:1003B000F4CF03F0F3CF53F05102F3505426F4502E
:1003C0005322000E03224D505002F3505426F45095
:1003D0005322000E026A032202224B505102F350B4
:1003E0005326F4500322000E02224B505002F350C9
:1003F0000326F4500222000E016A01224D504F02E2
:10040000F3505326F4500322000E022201224C50D6
:100410004F02F3500326F4500222000E01224B50EB
:100420004F02F3500226F4500122002A01BE05D0EB
:1004300053360336023601360006000E53AE0AD09C
:10044000032A02220122015005E1025003E1035078
:1004500001E1002A52BE018E52AE019E04D0006A14
:10046000016A026A036A12008E0E006E4FC001F02C
:100470004EC002F0036A015209E102C001F0026AB3
:10048000080E005E015202E1006A08D0D89001BE59
:1004900004D0023601360006F9D7019E12004E50F4
:1004A000D8B4A5D05A6E5250D8B4A1D05A5E05E344
:1004B0007F0E5A26D8B09BD006D0810E5A5ED8A0A7
:1004C00096D0D8B494D05AC000F0016A026A036A88
:1004D000596A4FC058F0588E50C057F051C056F06E
:1004E000190E5A6E5550565E0DE2010E575E0AE225
:1004F000585E08E2595E06E2592A582A572A555092
:10050000562628D05450575E12E2010E585E0FE274
:10051000595E0DE2592A582A5450572655505626EE
:1005200019E3572A17E1582A15E1592A13D05350D5
:100530008009585E0EE2010E595E0BE2592A5350B3
:100540008009582654505726E9E3582AE7E1592AEA
:10055000E5D703805A2E01D00BD0D89056365736A7
:1005600058365936D8900336023601365B36BAD73C
:100570005BA006D0D8900132023203325B3202D047
:10058000000635E05BBE1ED0D8905636573658363A
:1005900059365550565E07E2010E575E04E2585E2A
:1005A00002E2595E1AE35450575E05E2010E585EAE
:1005B00002E2595E12E353508009585E03E2010ED5
:1005C000595E0BE3032A09E1022A07E1012A05E14A
:1005D000002A0DE00132023203324FC05AF053506C
:1005E0005A1A5AAE02D0018E06D0019E04D0006A7B
:1005F000016A026A036A1200800ED8B2531A586A5E
:10060000596A4FC057F05350571A4E50D8B4DCD0E7
:10061000566E006E5250D8B4E0D0565ED8B481D039
:100620003DE353C05CF05C8E54C05BF055C05AF0A3
:10063000596AD8905C325B325A325932562EF8D70A
:1006400057AE03D05880DDD0589056905888EA6A4B
:10065000510EE96EE9D0589857BE0AD056A013D073
:100660005C325B325A325932002AD8B4C5D00BD032
:100670005CBE0CD0D89059365A365B365C360006D4
:10068000D8B4BAD0F5D7588C6BD0589C4FC057F01F
:100690004FAE02D05C8EA9D05C9EA7D052C056F05F
:1006A00052C000F04E50565E4FC05CF05C8E50C0A1
:1006B0005BF051C05AF0596AD8905C325B325A32C2
:1006C0005932562EF8D757AE03D058829AD0589246
:1006D0005690588AEA6A550EE96EA6D0589A57BEC7
:1006E0000AD056A013D05C325B325A325932002AFB
:1006F000D8B482D00BD05CBE0CD0D89059365A36C4
:100700005B365C360006D8B477D0F5D7588E28D043
:10071000589E53C057F053AE02D05C8E66D05C9E9C
:1007200064D053C05CF05C8E54C05BF055C05AF08E
:1007300057AE04D05C9E588464D05894596A569041
:10074000EA6A510EE96E70D057BE1CD04FC057F008
:1007500056A006D05C325B325A325932002A4CE045
:1007600059AE0BD05A2A09E15B2A07E15C2A05E160
:100770005C325B325A32002A3FE058BC86D758BE02
:10078000C7D71CD0800E5C1A5CAE04D03AD053C0E0
:1007900057F00AD04FC057F05C5206E15B5204E1BB
:1007A0005A5202E1006A21D05CBE08D0D890593676
:1007B0005A365B365C36002EF7D71ED057AE02D0C5
:1007C0005C8E13D05C9E11D052C000F053C05CF020
:1007D00054C05BF055C05AF008D04EC000F04FC076
:1007E0005CF050C05BF051C05AF05CC001F05BC0DF
:1007F00002F05AC003F034D0006A016A026A036A48
:100800002FD0596A5A1E5B1E5C1E591E592A05E1DB
:100810005A2A03E15B2A01E15C2A58B015D758B285
:1008200056D758B48AD7B3D7EF505A2605E35B2A78
:1008300003E15C2AD8B45680ED52EF505B2603E307
:100840005C2AD8B45680ED52EF50EFBE01D0800A3A
:100850005C26D8B0568058B8FED658BA3FD774D761
:100860001200426A416A406A7F0E3F6E466A456ADC
:10087000446A436A478047924794496A3B503C1018
:1008800005E1006A016A026A036A03D14950492AF4
:10089000036A3B24E96E3C500320EA6EEFCF48F038
:1008A0004852D8B4BBD047A00FD0485020080CE025
:1008B000479048502B0803E14792A5D005D04850F7
:1008C0002D0802E147829FD047B007D048502E083C
:1008D00004E147B402D0478496D047B091D0485045
:1008E0002F08D8B08DD048503908D8A089D0300E04
:1008F000485E47A44FD042C04DF041C04CF040C0CC
:100900004BF03FC04AF0516A506A200E4F6E820E83
:100910004E6E31DD03C042F002C041F001C040F034
:1009200000C03FF04F6A48C04EF09EDD03C04DF05E
:1009300002C04CF001C04BF000C04AF003C051F0BF
:1009400002C050F001C04FF000C04EF042C055F060
:1009500041C054F040C053F03FC052F0A0DDD892E7
:1009600046C051F045C050F044C04FF043C04EF077
:1009700003C055F002C054F001C053F000C052F063
:100980003BDE03C046F002C045F001C044F000C0A9
:1009900043F035D04D6A4C6A200E4B6E820E4A6E83
:1009A00046C051F045C050F044C04FF043C04EF037
:1009B000E2DC03C04DF002C04CF001C04BF000C0BF
:1009C0004AF04F6A48C04EF04FDDD8924DC051F00A
:1009D0004CC050F04BC04FF04AC04EF003C055F031
:1009E00002C054F001C053F000C052F005DE03C055
:1009F00046F002C045F001C044F000C043F003D00F
:100A000047B001D00BD04950492A036A3B24E96E14
:100A10003C500320EA6EEFCF48F042D747A217D0F0
:100A20004D6A4C6A800E4B6E7F0E4A6E46C051F086
:100A300045C050F044C04FF043C04EF09CDC03C0B2
:100A400046F002C045F001C044F000C043F03D5004
:100A50003E1017E049520CE049063DC0E9FF3EC098
:100A6000EAFF49503B24EF6E000E3C20EC6E09D0AB
:100A70003DC0E9FF3EC0EAFF3CC0ECFFED523BC089
:100A8000EFFF43C000F044C001F045C002F046C093
:100A900003F012003CC043F04050431A43AE05D06F
:100AA000D894D8903CBED8802FD03CC043F03FC0F3
:100AB00044F03B50445E06E043AE26D0D850010AD5
:100AC000D86E22D040C044F03C50445E06E043AEB5
:100AD0001BD0D850010AD86E17D041C044F03D5009
:100AE000445E06E043AE10D0D850010AD86E0CD058
:100AF00042C044F03E50445E06E043AE05D0D850BC
:100B0000010AD86E01D0D89012004850B608486E3D
:100B1000036A49C04CF0498ED89049324A324B3270
:100B20000332023201320032482EF6D74CAE0BD0DF
:100B3000001E011E021E031E002AD8B4012AD8B4CA
:100B4000022AD8B4032A14EF06F0D8B203D0EA6A16
:100B5000500EE96E006A016A026A036A506A516ABD
:100B6000526A536A4F504E104D104C102CE0200E1C
:100B7000546ED890483649364A364B365036513640
:100B8000523653364F50535C08E14E50525C05E1EB
:100B90004D50515C02E14C50505C0FE34C50505EA4
:100BA0004D50D8A04D3C515E4E50D8A04E3C525EA8
:100BB0004F50D8A04F3C535ED880003601360236E5
:100BC0000336542ED6D750C0EFFF51C0ECFF52C0B1
:100BD000ECFF53C0ECFF1200E950406E3F50426EF4
:100BE0001AE03EC04DF03DC04CF03CC04BF03BC065
:100BF0004AF0516A506A200E4F6E820E4E6EBBEC68
:100C000001F003C03EF002C03DF001C03CF000C066
:100C10003BF0422EE6D73EC04BF03DC04AF03CC010
:100C200049F03BC048F071D703C03EF002C03DF030
:100C300001C03CF000C03BF03EAE0DD04006408A03
:100C40003B1E3C1E3D1E3E1E3B2AD8B43C2AD8B457
:100C50003D2AD8B43E2A3B0E476E9A0E466ECA0E07
:100C6000456E446A0A0E426E3F50D8B4402AD8827C
:100C7000EA6A3B0EE96E3EC04BF03DC04AF03CC014
:100C800049F03BC048F047C04FF046C04EF045C069
:100C90004DF044C04CF059DF015000520FE13F28A5
:100CA000425C0CE040500CE00F0B425C01E03BE288
:100CB00040BE39D040BC04D0200E30D0200E4016AB
:100CC00040AA0DD0409A3F50D8A440060050406E34
:100CD0002D0E9EA8FED7AD6E4050006E406A3F506C
:100CE000425C0BE10050406E2E0E9EA8FED7AD6E0A
:100CF0004050006E200E4016000E300E40AA0ED05E
:100D0000409A3F50D8A440060050406E2D0E9EA839
:100D1000FED7AD6E4050006E406A300E0026005087
:100D20009EA8FED7AD6ED89247C04BF046C04AF0A1
:100D300045C049F044C048F04F6A4E6A4D6A0A0EF9
:100D40004C6E03DF03C047F002C046F001C045F01F
:100D500000C044F0422E8BD712000900F6CF3CF0C1
:100D6000F7CF3DF0F5509EA8FED7AD6E3CC0F6FF24
:100D70003DC0F7FF3B2EF1D71200F86AD09E078ED8
:100D8000B886A00EAF6E010EB06EA60EAC6E900EC1
:100D9000AB6E276A286A296A2A6A2C6A2B6A2D6A2E
:100DA000C150C00B0F09C16E070EB46E166A176AE8
:100DB000600ED36E400E9B6ED350C00EF2129D8A11
:100DC000C150C00B0F09C16E010ED76ED66AC70E97
:100DD000D56E316A306A2F6A2E6A356A346A336A90
:100DE000326A396A386A376A366A300E3A6E2C6A65
:100DF0002B6A286A276A296A2A6A2D6A9AEC01F006
:100E0000D20EF66E010EF76EAAEC01F0E40EF66E4D
:100E1000010EF76EAAEC01F0000EF66E020EF76EF0
:100E2000AAEC01F0F28A2952FEE0F29A2C6A2B6AAF
:100E3000272C0FD01E0EF66E020EF76EAAEC01F0F4
:100E40002A2C06D02A0EF66E020EF76EAAEC01F0DE
:100E5000C0D7010E285C036A1C0FE96E000E032048
:100E6000EA6EEF500A080BE0010E285C036A1C0FC3
:100E7000E96E000E0320EA6EEF500D0809E1010E45
:100E8000285C036A1C0FE96E000E0320EA6EEF6A0D
:100E90001C5201E1CFD73C6A1C0E3B6E3E6A3D6A94
:100EA000E0DC03C031F002C030F001C02FF000C020
:100EB0002EF03E6A400E3D6E1C0E3C6E8C0E3B6E5C
:100EC00031C042F030C041F02FC040F02EC03FF0A2
:100ED000E1DD11E231C03EF030C03DF02FC03CF00A
:100EE0002EC03BF0426A400E416E9C0E406E8C0E4E
:100EF0003F6ED0DD01E39ED7890EE96E31C03EF032
:100F000030C03DF02FC03CF02EC03BF0040E3F6ED1
:100F100063DE0A0E9EA8FED7AD6E0D0E9EA8FED70C
:100F2000AD6E286A276A296A2A6A2D6A9AEC01F04E
:100F30004A0EF66E020EF76EAAEC01F0F28A295202
:100F4000FEE0F29A2C6A2B6A272C0FD06A0EF66EFE
:100F5000020EF76EAAEC01F02A2C06D0740EF66E83
:100F6000020EF76EAAEC01F034D7010E285C036A7A
:100F70001C0FE96E000E0320EA6EEF500A080BE02A
:100F8000010E285C036A1C0FE96E000E0320EA6E56
:100F9000EF500D0809E1010E285C036A1C0FE96E91
:100FA000000E0320EA6EEF6A1C5201E143D73C6A4F
:100FB0001C0E3B6E3E6A3D6A54DC03C035F002C035
:100FC00034F001C033F000C032F03E6A400E3D6E96
:100FD0001C0E3C6E8C0E3B6E35C042F034C041F0AE
:100FE00033C040F032C03FF055DD11E231C03EF079
:100FF00030C03DF02FC03CF02EC03BF0426A400EA6
:10100000416E9C0E406E8C0E3F6E44DD01E312D7A4
:10101000890EE96E35C03EF034C03DF033C03CF07F
:1010200032C03BF0040E3F6ED7DD0A0E9EA8FED7FD
:10103000AD6E0D0E9EA8FED7AD6E286A276A296A8E
:101040002A6A2D6A9AEC01F0940EF66E020EF76E83
:10105000AAEC01F0F28A2952FEE0F29A2C6A2B6A7D
:101060001C5202E1010E276E272C0FD0E20EF66E05
:10107000020EF76EAAEC01F02A2C06D0EC0EF66EEA
:10108000020EF76EAAEC01F0A4D6010E285C036AEA
:101090001C0FE96E000E0320EA6EEF500A080BE009
:1010A000010E285C036A1C0FE96E000E0320EA6E35
:1010B000EF500D0809E1010E285C036A1C0FE96E70
:1010C000000E0320EA6EEF6A1CC03AF0286A276A15
:1010D000296A2A6A2D6A9AEC01F03A5031081CE11B
:1010E000D89231C051F030C050F02FC04FF02EC018
:1010F0004EF035C055F034C054F033C053F032C018
:1011000052F0FCEC02F003C039F002C038F001C02C
:1011100037F000C036F05AD03A5032081CE1D8827D
:1011200031C051F030C050F02FC04FF02EC04EF003
:1011300035C055F034C054F033C053F032C052F0D3
:10114000FCEC02F003C039F002C038F001C037F007
:1011500000C036F03BD03A5033081BE131C04DF0AF
:1011600030C04CF02FC04BF02EC04AF035C051F0CB
:1011700034C050F033C04FF032C04EF0BBEC01F041
:1011800003C039F002C038F001C037F000C036F0BB
:101190001DD03A5034081AE131C051F030C050F03F
:1011A0002FC04FF02EC04EF035C055F034C054F073
:1011B00033C053F032C052F04FEC02F003C039F0AC
:1011C00002C038F001C037F000C036F035C03EF044
:1011D00034C03DF033C03CF032C03BF0426A416A5B
:1011E000406A3F6A57DC03E13A50340806E03A505F
:1011F000300803E23A50340801E21CD60C0EF66EB9
:10120000030EF76E210E3B6EA8DD890EE96E39C024
:101210003EF038C03DF037C03CF036C03BF0020E27
:101220003F6EDADC2F0EF66E030EF76E040E3B6E89
:0E12300094DD396A386A376A366ADBD5030006
:020000040030CA
:0E0000000002181E000581000FC00FE00F4027
:00000001FF
;PIC18F4620
;CRC=74C5  CREATED="27-abr.-17 22:16"
