:0400000029EF06F0EE
:08000800046ED8CF05F0E0CF33
:1000100006F00001E9CF0CF0EACF07F0E1CF08F0DD
:10002000E2CF09F0D9CF0AF0DACF0BF0F3CF12F01C
:10003000F4CF13F0FACF14F000C00EF001C00FF0AF
:1000400002C010F003C011F09DAA2AEF00F09EBA82
:100050004BEF00F00EC000F00FC001F010C002F036
:1000600011C003F00CC0E9FF07C0EAFF078E08C00B
:10007000E1FF09C0E2FF0AC0D9FF0BC0DAFF12C0DE
:10008000F3FF13C0F4FF14C0FAFF045006C0E0FFF2
:1000900005C0D8FF1000036A28501C0FE96E000E3F
:1000A0000320EA6E9EAAFED7AECFEFFF036A285068
:1000B0001C0FE96E000E0320EA6EEF500A080AE0FA
:1000C000036A28501C0FE96E000E0320EA6EEF5001
:1000D0000D0802E1010E296E2850090802E2010E06
:1000E000296E036A28501C0FE96E000E0320EA6E89
:1000F000EF502F0820E3036A28501C0FE96E000E12
:100100000320EA6EEF50390816E2036A28501C0FEC
:10011000E96E000E0320EA6EEF502D080CE0036A32
:1001200028501C0FE96E000E0320EA6EEF502E08D7
:1001300002E0010E276E282A9E9A2AEF00F05072E4
:10014000616374696361204E6F2E20340D0043613A
:100150006C63756C61646F726120417269746D6566
:1001600074696361200D0D00496E677265736120CB
:10017000656C207072696D6572206F706572616E5A
:10018000646F200D00004572726F72200D00536580
:10019000206861207465726D696E61646F20656CA2
:1001A000207469656D706F00496E677265736120B8
:1001B000656C20736567756E646F206F7065726122
:1001C0006E646F200D004572726F72200D005365D2
:1001D000206861207465726D696E61646F20656C62
:1001E000207469656D706F0053656C656363696F3A
:1001F0006E6520756E61206F7065726163696F6EE8
:100200003A200D20312953756D6120203229526525
:10021000737461202033294D756C7469706C696347
:100220006163696F6E202034294469766973696F50
:100230006E200D004572726F72200D0053652068AC
:1002400061207465726D696E61646F20656C2074E5
:1002500069656D706F00456C20726573756C7461B3
:10026000646F206465206C61206F706572616369E2
:100270006F6E2065733A2025342E34660D0D000014
:10028000386A386A38500A080AE3036A38501C0F83
:10029000E96E000E0320EA6EEF6A382AF3D71200E7
:1002A0000900F5520DE0F6CF38F0F7CF39F0F550F0
:1002B0009EA8FED7AD6E38C0F6FF39C0F7FFF0D765
:1002C00012004750D8B471D0006E4B50D8B46DD0E6
:1002D000002604E3810E002668E204D07F0E005E53
:1002E00064E363E048C04FF04C504F1A488E4C8E88
:1002F0004A504E02F4CF51F049504D02F4CF03F072
:10030000F3CF50F04E02F3505126F4505022000E1D
:1003100003224A504D02F3505126F4505022000E51
:10032000026A0322022248504E02F3505026F45033
:100330000322000E022248504D02F3500326F450CF
:100340000222000E016A01224A504C02F35050264C
:10035000F4500322000E0222012249504C02F350B5
:100360000326F4500222000E012248504C02F350A2
:100370000226F4500122002A01BE05D05036033671
:10038000023601360006000E50AE0AD0032A0222C1
:100390000122015005E1025003E1035001E1002A6E
:1003A0004FBE018E4FAE019E04D0006A016A026A00
:1003B000036A12008E0E006E4CC001F04BC002F0BA
:1003C000036A015209E102C001F0026A080E005EF0
:1003D000015202E1006A08D0D89001BE04D0023672
:1003E00001360006F9D7019E12004B50D8B4A5D0B3
:1003F000576E4F50D8B4A1D0575E05E37F0E5726F5
:10040000D8B09BD006D0810E575ED8A096D0D8B475
:1004100094D057C000F0016A026A036A566A4CC061
:1004200055F0558E4DC054F04EC053F0190E576E16
:100430005250535E0DE2010E545E0AE2555E08E230
:10044000565E06E2562A552A542A5250532628D080
:100450005150545E12E2010E555E0FE2565E0DE2FF
:10046000562A552A515054265250532619E3542ADD
:1004700017E1552A15E1562A13D050508009555ED0
:100480000EE2010E565E0BE2562A505080095526A8
:1004900051505426E9E3552AE7E1562AE5D703806F
:1004A000572E01D00BD0D890533654365536563689
:1004B000D8900336023601365836BAD758A006D03F
:1004C000D890013202320332583202D0000635E0B1
:1004D00058BE1ED0D89053365436553656365250E4
:1004E000535E07E2010E545E04E2555E02E2565E80
:1004F0001AE35150545E05E2010E555E02E2565E6B
:1005000012E350508009555E03E2010E565E0BE384
:10051000032A09E1022A07E1012A05E1002A0DE088
:100520000132023203324CC057F05050571A57AEC6
:1005300002D0018E06D0019E04D0006A016A026AD0
:10054000036A1200800ED8B2501A556A566A4CC01F
:1005500054F05050541A4B50D8B4DCD0536E006E47
:100560004F50D8B4E0D0535ED8B481D03DE350C0F2
:1005700059F0598E51C058F052C057F0566AD89071
:100580005932583257325632532EF8D754AE03D020
:100590005580DDD0559053905588EA6A4E0EE96E2D
:1005A000E9D0559854BE0AD053A013D059325832CE
:1005B00057325632002AD8B4C5D00BD059BE0CD011
:1005C000D89056365736583659360006D8B4BAD071
:1005D000F5D7558C6BD0559C4CC054F04CAE02D026
:1005E000598EA9D0599EA7D04FC053F04FC000F0EC
:1005F0004B50535E4CC059F0598E4DC058F04EC010
:1006000057F0566AD8905932583257325632532ED4
:10061000F8D754AE03D055829AD055925390558A4C
:10062000EA6A520EE96EA6D0559A54BE0AD053A07B
:1006300013D05932583257325632002AD8B482D0A9
:100640000BD059BE0CD0D89056365736583659363E
:100650000006D8B477D0F5D7558E28D0559E50C017
:1006600054F050AE02D0598E66D0599E64D050C01E
:1006700059F0598E51C058F052C057F054AE04D0C2
:10068000599E558464D05594566A5390EA6A4E0E2A
:10069000E96E70D054BE1CD04CC054F053A006D0AC
:1006A0005932583257325632002A4CE056AE0BD0EF
:1006B000572A09E1582A07E1592A05E159325832E7
:1006C0005732002A3FE055BC86D755BEC7D71CD04D
:1006D000800E591A59AE04D03AD050C054F00AD006
:1006E0004CC054F0595206E1585204E1575202E10D
:1006F000006A21D059BE08D0D890563657365836A1
:100700005936002EF7D71ED054AE02D0598E13D0D2
:10071000599E11D04FC000F050C059F051C058F050
:1007200052C057F008D04BC000F04CC059F04DC03B
:1007300058F04EC057F059C001F058C002F057C0F1
:1007400003F034D0006A016A026A036A2FD0566A45
:10075000571E581E591E561E562A05E1572A03E1F8
:10076000582A01E1592A55B015D755B256D755B474
:100770008AD7B3D7EF50572605E3582A03E1592A01
:10078000D8B45380ED52EF50582603E3592AD8B419
:100790005380ED52EF50EFBE01D0800A5926D8B0F9
:1007A000538055B8FED655BA3FD774D712003F6A6A
:1007B0003E6A3D6A7F0E3C6E436A426A416A406A05
:1007C000448044924494466A3850391005E1006AE6
:1007D000016A026A036A03D14650462A036A382432
:1007E000E96E39500320EA6EEFCF45F04552D8B498
:1007F000BBD044A00FD0455020080CE04490455099
:100800002B0803E14492A5D005D045502D0802E104
:1008100044829FD044B007D045502E0804E144B430
:1008200002D0448496D044B091D045502F08D8B01F
:100830008DD045503908D8A089D0300E455E44A4EB
:100840004FD03FC04AF03EC049F03DC048F03CC0E8
:1008500047F04E6A4D6A200E4C6E820E4B6E31DDB3
:1008600003C03FF002C03EF001C03DF000C03CF0CC
:100870004C6A45C04BF09EDD03C04AF002C049F00F
:1008800001C048F000C047F003C04EF002C04DF078
:1008900001C04CF000C04BF03FC052F03EC051F0E0
:1008A0003DC050F03CC04FF0A0DDD89243C04EF0A8
:1008B00042C04DF041C04CF040C04BF003C052F07C
:1008C00002C051F001C050F000C04FF03BDE03C049
:1008D00043F002C042F001C041F000C040F035D00A
:1008E0004A6A496A200E486E820E476E43C04EF037
:1008F00042C04DF041C04CF040C04BF0E2DC03C0C0
:100900004AF002C049F001C048F000C047F04C6A0C
:1009100045C04BF04FDDD8924AC04EF049C04DF073
:1009200048C04CF047C04BF003C052F002C051F039
:1009300001C050F000C04FF005DE03C043F002C01C
:1009400042F001C041F000C040F003D044B001D0FB
:100950000BD04650462A036A3824E96E39500320EA
:10096000EA6EEFCF45F042D744A217D04A6A496AEF
:10097000800E486E7F0E476E43C04EF042C04DF071
:1009800041C04CF040C04BF09CDC03C043F002C0BF
:1009900042F001C041F000C040F03A503B1017E077
:1009A00046520CE046063AC0E9FF3BC0EAFF46501B
:1009B0003824EF6E000E3920EC6E09D03AC0E9FF02
:1009C0003BC0EAFF39C0ECFFED5238C0EFFF40C03A
:1009D00000F041C001F042C002F043C003F0120039
:1009E0004550B608456E036A46C049F0468ED89019
:1009F0004632473248320332023201320032452E4B
:100A0000F6D749AE0BD0001E011E021E031E002A9F
:100A1000D8B4012AD8B4022AD8B4032A7FEF05F04B
:100A2000D8B203D0EA6A4D0EE96E006A016A026A22
:100A3000036A4D6A4E6A4F6A506A4C504B104A1016
:100A400049102CE0200E516ED89045364636473678
:100A500048364D364E364F3650364C50505C08E1D5
:100A60004B504F5C05E14A504E5C02E149504D5CF1
:100A70000FE349504D5E4A50D8A04A3C4E5E4B5061
:100A8000D8A04B3C4F5E4C50D8A04C3C505ED88018
:100A90000036013602360336512ED6D74DC0EFFF51
:100AA0004EC0ECFF4FC0ECFF50C0ECFF1200E9500D
:100AB0003D6E3C503F6E1AE03BC04AF03AC049F0F0
:100AC00039C048F038C047F04E6A4D6A200E4C6E6F
:100AD000820E4B6E61EC01F003C03BF002C03AF0B5
:100AE00001C039F000C038F03F2EE6D73BC048F0D7
:100AF0003AC047F039C046F038C045F071D703C05E
:100B00003BF002C03AF001C039F000C038F03BAE13
:100B10000DD03D063D8A381E391E3A1E3B1E382A2E
:100B2000D8B4392AD8B43A2AD8B43B2A3B0E446EFA
:100B30009A0E436ECA0E426E416A0A0E3F6E3C50D8
:100B4000D8B43D2AD882EA6A380EE96E3BC048F034
:100B50003AC047F039C046F038C045F044C04CF0C8
:100B600043C04BF042C04AF041C049F059DF015048
:100B700000520FE13C283F5C0CE03D500CE00F0BB5
:100B80003F5C01E03BE23DBE39D03DBC04D0200ECD
:100B900030D0200E3D163DAA0DD03D9A3C50D8A431
:100BA0003D0600503D6E2D0E9EA8FED7AD6E3D5009
:100BB000006E3D6A3C503F5C0BE100503D6E2E0ED6
:100BC0009EA8FED7AD6E3D50006E200E3D16000E65
:100BD000300E3DAA0ED03D9A3C50D8A43D060050A0
:100BE0003D6E2D0E9EA8FED7AD6E3D50006E3D6A47
:100BF000300E002600509EA8FED7AD6ED89244C09D
:100C000048F043C047F042C046F041C045F04C6A4E
:100C10004B6A4A6A0A0E496E03DF03C044F002C001
:100C200043F001C042F000C041F03F2E8BD71200CC
:100C30000900F6CF39F0F7CF3AF0F5509EA8FED76D
:100C4000AD6E39C0F6FF3AC0F7FF382EF1D7E6EFA8
:100C500007F0F86AD09E078E600ED36E400E9B6E32
:100C6000D350B886A00EAF6E010EB06EA60EAC6E5D
:100C7000900EAB6E276A286A296A2A6AC150C00B97
:100C80000F09C16E070EB46E166A176A600ED36E36
:100C9000400E9B6ED350C00EF2129D8AC150C00B05
:100CA0000F09C16E2E6A2D6A2C6A2B6A326A316A6C
:100CB000306A2F6A366A356A346A336A300E376EA4
:100CC000286A276A296A2A6A40EC01F03E0EF66E0D
:100CD000010EF76E50EC01F04E0EF66E010EF76E3F
:100CE00050EC01F0680EF66E010EF76E50EC01F05C
:100CF0002952FEE0272C0FD0860EF66E010EF76EFD
:100D000050EC01F02A2C06D08E0EF66E010EF76E16
:100D100050EC01F0C7D7010E285C036A1C0FE96E86
:100D2000000E0320EA6EEF500A080BE0010E285C6B
:100D3000036A1C0FE96E000E0320EA6EEF500D08E7
:100D400009E1010E285C036A1C0FE96E000E032006
:100D5000EA6EEF6A396A1C0E386E3B6A3A6A27DD22
:100D600003C02EF002C02DF001C02CF000C02BF00B
:100D7000890EE96E2EC03BF02DC03AF02CC039F040
:100D80002BC038F0040E3C6E92DE0D0E9EA8FED7EE
:100D9000AD6E286A276A296A2A6A40EC01F0A80E1B
:100DA000F66E010EF76E50EC01F02952FEE0272C92
:100DB0000FD0C60EF66E010EF76E50EC01F02A2C25
:100DC00006D0CE0EF66E010EF76E50EC01F06AD72B
:100DD000010E285C036A1C0FE96E000E0320EA6E08
:100DE000EF500A080BE0010E285C036A1C0FE96E45
:100DF000000E0320EA6EEF500D0809E1010E285C99
:100E0000036A1C0FE96E000E0320EA6EEF6A396A6E
:100E10001C0E386E3B6A3A6ACADC03C032F002C06C
:100E200031F001C030F000C02FF0890EE96E32C001
:100E30003BF031C03AF030C039F02FC038F0040E2A
:100E40003C6E35DE0D0E9EA8FED7AD6E286A276A71
:100E5000296A2A6A40EC01F0E80EF66E010EF76E80
:100E600050EC01F02952FEE0272C0FD0340EF66E24
:100E7000020EF76E50EC01F02A2C06D03C0EF66EF6
:100E8000020EF76E50EC01F00DD7010E285C036ADC
:100E90001C0FE96E000E0320EA6EEF500A080BE00B
:100EA000010E285C036A1C0FE96E000E0320EA6E37
:100EB000EF500D0809E1010E285C036A1C0FE96E72
:100EC000000E0320EA6EEF6A1CC037F0375031087D
:100ED0001CE1D8922EC04EF02DC04DF02CC04CF02D
:100EE0002BC04BF032C052F031C051F030C050F046
:100EF0002FC04FF0A2EC02F003C036F002C035F074
:100F000001C034F000C033F05AD0375032081CE131
:100F1000D8822EC04EF02DC04DF02CC04CF02BC00E
:100F20004BF032C052F031C051F030C050F02FC001
:100F30004FF0A2EC02F003C036F002C035F001C061
:100F400034F000C033F03BD0375033081BE12EC0E3
:100F50004AF02DC049F02CC048F02BC047F032C0F9
:100F60004EF031C04DF030C04CF02FC04BF061EC72
:100F700001F003C036F002C035F001C034F000C00B
:100F800033F01DD0375034081AE12EC04EF02DC07A
:100F90004DF02CC04CF02BC04BF032C052F031C0A1
:100FA00051F030C050F02FC04FF0F5EC01F003C00D
:100FB00036F002C035F001C034F000C033F0560EF8
:100FC000F66E020EF76E210E386E32D6890EE96E7D
:100FD00036C03BF035C03AF034C039F033C038F099
:100FE000040E3C6E64DD0D0E9EA8FED7AD6E0D0E98
:0A0FF0009EA8FED7AD6E64D6030084
:020000040030CA
:0E0000000008181E000581000FC00FE00F4021
:00000001FF
;PIC18F4620
;CRC=13C8  CREATED="26-abr.-17 19:37"
