:04000000ECEF05F02C
:08000800046ED8CF05F0E0CF33
:1000100006F00001E9CF0CF0EACF07F0E1CF08F0DD
:10002000E2CF09F0D9CF0AF0DACF0BF0F3CF12F01C
:10003000F4CF13F0FACF14F000C00EF001C00FF0AF
:1000400002C010F003C011F09DAA2AEF00F09EBA82
:100050004BEF00F00EC000F00FC001F010C002F036
:1000600011C003F00CC0E9FF07C0EAFF078E08C00B
:10007000E1FF09C0E2FF0AC0D9FF0BC0DAFF12C0DE
:10008000F3FF13C0F4FF14C0FAFF045006C0E0FFF2
:1000900005C0D8FF1000276A036A28501C0FE96EBC
:1000A000000E0320EA6E9EAAFED7AECFEFFF036AD2
:1000B00028501C0FE96E000E0320EA6EEF502F0847
:1000C00020E3036A28501C0FE96E000E0320EA6E3D
:1000D000EF50390816E2036A28501C0FE96E000E33
:1000E0000320EA6EEF502D080CE0036A28501C0F25
:1000F000E96E000E0320EA6EEF502E0802E0010EBA
:10010000276E282A9E9A2AEF00F050726163746964
:100110006361204E6F2E20340D0043616C63756C5B
:1001200061646F726120417269746D6574696361A5
:10013000200D0D00496E677265736120656C20703B
:1001400072696D6572206F706572616E646F200DEB
:1001500000004461746F20696E636F72726563742E
:100160006F00496E677265736120656C2073656707
:10017000756E646F206F706572616E646F200D0024
:100180004461746F20696E636F72726563746F008F
:1001900053656C656363696F6E6520756E61206F72
:1001A0007065726163696F6E3A200D203129537555
:1001B0006D61202032295265737461202033294DEE
:1001C000756C7469706C69636163696F6E2020344B
:1001D000294469766973696F6E200D00456C207241
:1001E0006573756C7461646F206465206C61206F49
:1001F0007065726163696F6E2065733A2025342ED5
:1002000034660D0D0000366A366A36500A080AE375
:10021000036A36501C0FE96E000E0320EA6EEF6A87
:10022000362AF3D712000900F5520DE0F6CF36F06A
:10023000F7CF37F0F5509EA8FED7AD6E36C0F6FF6B
:1002400037C0F7FFF0D712004550D8B471D0006E18
:100250004950D8B46DD0002604E3810E002668E230
:1002600004D07F0E005E64E363E046C04DF04A5068
:100270004D1A468E4A8E48504C02F4CF4FF04750EC
:100280004B02F4CF03F0F3CF4EF04C02F3504F2665
:10029000F4504E22000E032248504B02F3504F26DA
:1002A000F4504E22000E026A0322022246504C02F3
:1002B000F3504E26F4500322000E022246504B0209
:1002C000F3500326F4500222000E016A0122485026
:1002D0004A02F3504E26F4500322000E022201225D
:1002E00047504A02F3500326F4500222000E012226
:1002F00046504A02F3500226F4500122002A01BE61
:1003000005D04E360336023601360006000E4EAEDC
:100310000AD0032A02220122015005E1025003E122
:10032000035001E1002A4DBE018E4DAE019E04D066
:10033000006A016A026A036A12008E0E006E4AC0E9
:1003400001F049C002F0036A015209E102C001F064
:10035000026A080E005E015202E1006A08D0D890DD
:1003600001BE04D0023601360006F9D7019E120004
:100370004950D8B4A5D0556E4D50D8B4A1D0555ED3
:1003800005E37F0E5526D8B09BD006D0810E555E72
:10039000D8A096D0D8B494D055C000F0016A026AB3
:1003A000036A546A4AC053F0538E4BC052F04CC09B
:1003B00051F0190E556E5050515E0DE2010E525E15
:1003C0000AE2535E08E2545E06E2542A532A522A95
:1003D0005050512628D04F50525E12E2010E535E0B
:1003E0000FE2545E0DE2542A532A4F5052265050C9
:1003F000512619E3522A17E1532A15E1542A13D042
:100400004E508009535E0EE2010E545E0BE2542AF8
:100410004E50800953264F505226E9E3532AE7E114
:10042000542AE5D70380552E01D00BD0D8905136F1
:10043000523653365436D890033602360136563685
:10044000BAD756A006D0D8900132023203325632C3
:1004500002D0000635E056BE1ED0D8905136523636
:10046000533654365050515E07E2010E525E04E29C
:10047000535E02E2545E1AE34F50525E05E2010EF3
:10048000535E02E2545E12E34E508009535E03E273
:10049000010E545E0BE3032A09E1022A07E1012A57
:1004A00005E1002A0DE00132023203324AC055F064
:1004B0004E50551A55AE02D0018E06D0019E04D082
:1004C000006A016A026A036A1200800ED8B24E1AEC
:1004D000536A546A4AC052F04E50521A4950D8B426
:1004E000DCD0516E006E4D50D8B4E0D0515ED8B41F
:1004F00081D03DE34EC057F0578E4FC056F050C0EC
:1005000055F0546AD8905732563255325432512EE3
:10051000F8D752AE03D05380DDD05390519053881A
:10052000EA6A4C0EE96EE9D0539852BE0AD051A047
:1005300013D05732563255325432002AD8B4C5D06F
:100540000BD057BE0CD0D890543655365636573649
:100550000006D8B4BAD0F5D7538C6BD0539C4AC0A0
:1005600052F04AAE02D0578EA9D0579EA7D04DC0A8
:1005700051F04DC000F04950515E4AC057F0578EBF
:100580004BC056F04CC055F0546AD8905732563292
:1005900055325432512EF8D752AE03D053829AD0EE
:1005A00053925190538AEA6A500EE96EA6D0539A3C
:1005B00052BE0AD051A013D057325632553254325F
:1005C000002AD8B482D00BD057BE0CD0D890543665
:1005D0005536563657360006D8B477D0F5D7538EF1
:1005E00028D0539E4EC052F04EAE02D0578E66D0E9
:1005F000579E64D04EC057F0578E4FC056F050C033
:1006000055F052AE04D0579E538464D05394546A2C
:100610005190EA6A4C0EE96E70D052BE1CD04AC0AE
:1006200052F051A006D05732563255325432002A79
:100630004CE054AE0BD0552A09E1562A07E1572A5F
:1006400005E1573256325532002A3FE053BC86D777
:1006500053BEC7D71CD0800E571A57AE04D03AD01D
:100660004EC052F00AD04AC052F0575206E15652DC
:1006700004E1555202E1006A21D057BE08D0D8905B
:100680005436553656365736002EF7D71ED052AE52
:1006900002D0578E13D0579E11D04DC000F04EC0DF
:1006A00057F04FC056F050C055F008D049C000F088
:1006B0004AC057F04BC056F04CC055F057C001F03F
:1006C00056C002F055C003F034D0006A016A026AD5
:1006D000036A2FD0546A551E561E571E541E542AA4
:1006E00005E1552A03E1562A01E1572A53B015D7EF
:1006F00053B256D753B48AD7B3D7EF50552605E334
:10070000562A03E1572AD8B45180ED52EF505626AD
:1007100003E3572AD8B45180ED52EF50EFBE01D019
:10072000800A5726D8B0518053B8FED653BA3FD767
:1007300074D712003D6A3C6A3B6A7F0E3A6E416A8A
:10074000406A3F6A3E6A428042924294446A36500E
:10075000371005E1006A016A026A036A03D1445056
:10076000442A036A3624E96E37500320EA6EEFCF3D
:1007700043F04352D8B4BBD042A00FD0435020081E
:100780000CE0429043502B0803E14292A5D005D0E3
:1007900043502D0802E142829FD042B007D043501F
:1007A0002E0804E142B402D0428496D042B091D0E7
:1007B00043502F08D8B08DD043503908D8A089D0E5
:1007C000300E435E42A44FD03DC048F03CC047F0DD
:1007D0003BC046F03AC045F04C6A4B6A200E4A6E68
:1007E000820E496E31DD03C03DF002C03CF001C015
:1007F0003BF000C03AF04A6A43C049F09EDD03C0B6
:1008000048F002C047F001C046F000C045F003C008
:100810004CF002C04BF001C04AF000C049F03DC0AE
:1008200050F03CC04FF03BC04EF03AC04DF0A0DD60
:10083000D89241C04CF040C04BF03FC04AF03EC09F
:1008400049F003C050F002C04FF001C04EF000C0AC
:100850004DF03BDE03C041F002C040F001C03FF06C
:1008600000C03EF035D0486A476A200E466E820EC0
:10087000456E41C04CF040C04BF03FC04AF03EC016
:1008800049F0E2DC03C048F002C047F001C046F086
:1008900000C045F04A6A43C049F04FDDD89248C0D5
:1008A0004CF047C04BF046C04AF045C049F003C089
:1008B00050F002C04FF001C04EF000C04DF005DE18
:1008C00003C041F002C040F001C03FF000C03EF064
:1008D00003D042B001D00BD04450442A036A3624DE
:1008E000E96E37500320EA6EEFCF43F042D742A2C1
:1008F00017D0486A476A800E466E7F0E456E41C02B
:100900004CF040C04BF03FC04AF03EC049F09CDC88
:1009100003C041F002C040F001C03FF000C03EF013
:100920003850391017E044520CE0440638C0E9FF53
:1009300039C0EAFF44503624EF6E000E3720EC6ECB
:1009400009D038C0E9FF39C0EAFF37C0ECFFED52EB
:1009500036C0EFFF3EC000F03FC001F040C002F0E3
:1009600041C003F012004350B608436E036A44C00E
:1009700047F0448ED8904432453246320332023238
:1009800001320032432EF6D747AE0BD0001E011EB7
:10099000021E031E002AD8B4012AD8B4022AD8B4F1
:1009A000032A42EF05F0D8B203D0EA6A4B0EE96E93
:1009B000006A016A026A036A4B6A4C6A4D6A4E6AAF
:1009C0004A504910481047102CE0200E4F6ED89026
:1009D00043364436453646364B364C364D364E3623
:1009E0004A504E5C08E149504D5C05E148504C5C72
:1009F00002E147504B5C0FE347504B5E4850D8A094
:100A0000483C4C5E4950D8A0493C4D5E4A50D8A065
:100A10004A3C4E5ED88000360136023603364F2EF1
:100A2000D6D74BC0EFFF4CC0ECFF4DC0ECFF4EC023
:100A3000ECFF1200E9503B6E3A503D6E1AE039C0AF
:100A400048F038C047F037C046F036C045F04C6A31
:100A50004B6A200E4A6E820E496E24EC01F003C0F0
:100A600039F002C038F001C037F000C036F03D2E3A
:100A7000E6D739C046F038C045F037C044F036C03C
:100A800043F071D703C039F002C038F001C037F02D
:100A900000C036F039AE0DD03B063B8A361E371EFD
:100AA000381E391E362AD8B4372AD8B4382AD8B4D2
:100AB000392A3B0E426E9A0E416ECA0E406E3F6A54
:100AC0000A0E3D6E3A50D8B43B2AD882EA6A360EF6
:100AD000E96E39C046F038C045F037C044F036C042
:100AE00043F042C04AF041C049F040C048F03FC026
:100AF00047F059DF015000520FE13A283D5C0CE00D
:100B00003B500CE00F0B3D5C01E03BE23BBE39D0BB
:100B10003BBC04D0200E30D0200E3B163BAA0DD09B
:100B20003B9A3A50D8A43B0600503B6E2D0E9EA82F
:100B3000FED7AD6E3B50006E3B6A3A503D5C0BE118
:100B400000503B6E2E0E9EA8FED7AD6E3B50006E41
:100B5000200E3B16000E300E3BAA0ED03B9A3A50A8
:100B6000D8A43B0600503B6E2D0E9EA8FED7AD6E5E
:100B70003B50006E3B6A300E002600509EA8FED708
:100B8000AD6ED89242C046F041C045F040C044F03E
:100B90003FC043F04A6A496A486A0A0E476E03DF5B
:100BA00003C042F002C041F001C040F000C03FF07D
:100BB0003D2E8BD712000900F6CF37F0F7CF38F073
:100BC000F5509EA8FED7AD6E37C0F6FF38C0F7FFD0
:100BD000362EF1D772EF07F0F86AD09E078E600EBE
:100BE000D36E400E9B6ED350B886A00EAF6E010E32
:100BF000B06EA60EAC6E900EAB6E276A286AC1501E
:100C0000C00B0F09C16E070EB46E166A176A600E2C
:100C1000D36E400E9B6ED350C00EF2129D8AC1500F
:100C2000C00B0F09C16E276A2C6A2B6A2A6A296ACF
:100C3000306A2F6A2E6A2D6A346A336A326A316AE0
:100C4000300E356E286A03EC01F00A0EF66E010EC6
:100C5000F76E13EC01F01A0EF66E010EF76E13EC40
:100C600001F0340EF66E010EF76E13EC01F09EAA41
:100C7000FED7010E285C036A1C0FE96E000E0320EC
:100C8000EA6EEF500D080FE0010E285C036A1C0F9E
:100C9000E96E000E0320EA6EEF500A0804E0010E30
:100CA000285C0A08E4E2010E285C036A1C0FE96E66
:100CB000000E0320EA6EEF500D0809E1010E285CDA
:100CC000036A1C0FE96E000E0320EA6EEF6A272C00
:100CD00007D0520EF66E010EF76E13EC01F0A3D79B
:100CE000286A376A1C0E366E396A386A23DD03C0FB
:100CF0002CF002C02BF001C02AF000C029F003EC58
:100D000001F0890EE96E2CC039F02BC038F02AC0F2
:100D100037F029C036F0040E3A6E8CDE0D0E9EA818
:100D2000FED7AD6E620EF66E010EF76E13EC01F09B
:100D30009EAAFED7010E285C036A1C0FE96E000E06
:100D40000320EA6EEF500D0804E0010E285C0A084B
:100D5000EFE2010E285C036A1C0FE96E000E03200F
:100D6000EA6EEF500D0809E1010E285C036A1C0FC2
:100D7000E96E000E0320EA6EEF6A275207E0800E4C
:100D8000F66E010EF76E13EC01F04DD7376A1C0EAC
:100D9000366E396A386ACEDC03C030F002C02FF0FC
:100DA00001C02EF000C02DF0286A890EE96E30C017
:100DB00039F02FC038F02EC037F02DC036F0040EB9
:100DC0003A6E38DE0D0E9EA8FED7AD6E03EC01F034
:100DD000900EF66E010EF76E13EC01F09EAAFED790
:100DE0001CC035F0355031081CE1D8922CC04CF0B5
:100DF0002BC04BF02AC04AF029C049F030C050F057
:100E00002FC04FF02EC04EF02DC04DF065EC02F01B
:100E100003C034F002C033F001C032F000C031F042
:100E20005AD0355032081CE1D8822CC04CF02BC06F
:100E30004BF02AC04AF029C049F030C050F02FC012
:100E40004FF02EC04EF02DC04DF065EC02F003C007
:100E500034F002C033F001C032F000C031F03BD0BA
:100E6000355033081BE12CC048F02BC047F02AC096
:100E700046F029C045F030C04CF02FC04BF02EC0DA
:100E80004AF02DC049F024EC01F003C034F002C058
:100E900033F001C032F000C031F01DD035503408BD
:100EA0001AE12CC04CF02BC04BF02AC04AF029C0EC
:100EB00049F030C050F02FC04FF02EC04EF02DC082
:100EC0004DF0B8EC01F003C034F002C033F001C0C3
:100ED00032F000C031F0DC0EF66E010EF76E210E1E
:100EE000366E69D6890EE96E34C039F033C038F0F9
:100EF00032C037F031C036F0040E3A6E9BDD0D0E75
:100F00009EA8FED7AD6E0D0E9EA8FED7AD6E9AD6EA
:020F10000300DC
:020000040030CA
:0E0000000008181E000581000FC00FE00F4021
:00000001FF
;PIC18F4620
;CRC=5074  CREATED="26-abr.-17 18:49"
